:100000000200F5E4F5F0F8F9EA4B6043EC4D7013AB
:1000100022EAC39C40137004EB9D400DEDC333FDF9
:10002000EC33FC05F0EC30E7E8EAC39C40067007CF
:10003000EB9D5003C38008C3EB9DFBEA9CFAD3E918
:1000400033F9E833F8ECC313FCED13FDD5F0DA8B8C
:10005000058A048802890322C000C001120003D06F
:1000600001D00022C000C001120003D001D0008CDA
:10007000028D0322EA30E707E4C39BFBE49AFAEC23
:1000800030E707E4C39DFDE49CFC22120093AA0420
:10009000AB0522C000C001EC6A33EA13C0E01200D5
:1000A00074120003D0E0C0E030E707E4C39BFBE438
:1000B0009AFAD0E030E607E4C39DFDE49CFCD00151
:1000C000D00022C000C001ED8BF0A4F8A9F0ED8AA9
:1000D000F0A429F9EC8BF0A429FAE8FBD001D000B8
:1000E00022E4F5D075813D78207A1DF608DAFC12FD
:0800F000010F0200000200E113
:100100003031323334202B20202A3536373839022B
:100110000431780179007A007B207D0F7C00120485
:100120004A75803875A00175A00075808075A001A2
:1001300075A000E4F535F536E4F537F538E4F53B20
:10014000F53C752F0075300175310075320175333E
:1001500000753401E4F539F53AC290E530B4010791
:10016000E52FB40002800302022D2093028002805A
:10017000207924878075A00375A002E4F52FF5305F
:10018000E5243395E0FAE52424D0F536EA34FFF58A
:1001900035209402800280207923878075A0037522
:1001A000A002E5233395E0FAE52324D0F536EA34BE
:1001B000FFF535E4F52FF530209502800280207997
:1001C00022878075A00375A002E5223395E0FAE549
:1001D0002224D0F536EA34FFF535E4F52FF530204A
:1001E0009602800280207921878075A00375A00285
:1001F000E5213395E0FAE52124D0F536EA34FFF520
:1002000035E4F52FF5302097028002802079208791
:100210008075A00375A002E5203395E0FAE520245F
:10022000D0F536EA34FFF535E4F52FF530D290C23B
:1002300091E532B40107E531B40002800280382034
:100240009302800280157929878075A00375A0022A
:10025000E4F531F532753900753A022096028002D4
:1002600080157926878075A00375A0027539007501
:100270003A01E4F531F5322094028002802F758036
:100280000175A00175A000E4F535F536E4F537F504
:1002900038E4F53BF53C752F00753001753100757C
:1002A0003201753300753401E4F539F53AD291C263
:1002B00092E534B40107E533B4000280030203A1E0
:1002C00020930280028026792E878075A00375A076
:1002D00002E4F533F534E52E3395E0FAE52E24D02B
:1002E000F53CEA34FFF53B75370075380120940280
:1002F00080028026792D878075A00375A002E4F521
:1003000033F534E52D3395E0FAE52D24D0F53CEABC
:1003100034FFF53B75370075380120950280028067
:1003200026792C878075A00375A002E4F533F53497
:10033000E52C3395E0FAE52C24D0F53CEA34FFF5C2
:100340003B75370075380120960280028026792B94
:10035000878075A00375A002E4F533F534E52B33EF
:1003600095E0FAE52B24D0F53CEA34FFF53B7537F0
:100370000075380120970280028026792A878075CF
:10038000A00375A002E4F533F534E52A3395E0FACD
:10039000E52A24D0F53CEA34FFF53B753700753883
:1003A00001D292E538B40107E537B400028002803B
:1003B0007C75803D75A00375A002E53AB40107E5A0
:1003C00039B400028002800EE536253CF538E5356B
:1003D000353BF537800FAC3BAD3CAA35AB36120050
:1003E000C38A378B38E53824F6E53734FF5002806E
:1003F00002802E7C007D0AAA37AB38120058EB240D
:1004000030F58075A00375A0027C007D0AAA37AB89
:1004100038120064EB2430F58075A00375A00280CB
:100420000CE5382430F58075A00375A0020201594F
:1004300022020112898288838B00EC4D6036E4E051
:10044000F608A31DBDFFF31C80F0B800118B00EC73
:100450004D6021E7F609081DBDFFF41C80F189827B
:1004600088838B00EC4D600CE493F608A31DBDFF60
:05047000F31C80F022E6
:00000001FF
